{"abi":[{"type":"constructor","inputs":[],"stateMutability":"nonpayable"},{"type":"function","name":"_mint","inputs":[{"name":"account","type":"address","internalType":"address"},{"name":"value","type":"uint256","internalType":"uint256"}],"outputs":[],"stateMutability":"nonpayable"},{"type":"function","name":"allowance","inputs":[{"name":"owner","type":"address","internalType":"address"},{"name":"spender","type":"address","internalType":"address"}],"outputs":[{"name":"","type":"uint256","internalType":"uint256"}],"stateMutability":"view"},{"type":"function","name":"approve","inputs":[{"name":"spender","type":"address","internalType":"address"},{"name":"value","type":"uint256","internalType":"uint256"}],"outputs":[{"name":"","type":"bool","internalType":"bool"}],"stateMutability":"nonpayable"},{"type":"function","name":"balanceOf","inputs":[{"name":"account","type":"address","internalType":"address"}],"outputs":[{"name":"","type":"uint256","internalType":"uint256"}],"stateMutability":"view"},{"type":"function","name":"decimals","inputs":[],"outputs":[{"name":"","type":"uint8","internalType":"uint8"}],"stateMutability":"view"},{"type":"function","name":"mint","inputs":[{"name":"account","type":"address","internalType":"address"},{"name":"amount","type":"uint256","internalType":"uint256"}],"outputs":[],"stateMutability":"nonpayable"},{"type":"function","name":"name","inputs":[],"outputs":[{"name":"","type":"string","internalType":"string"}],"stateMutability":"view"},{"type":"function","name":"owner","inputs":[],"outputs":[{"name":"","type":"address","internalType":"address"}],"stateMutability":"view"},{"type":"function","name":"symbol","inputs":[],"outputs":[{"name":"","type":"string","internalType":"string"}],"stateMutability":"view"},{"type":"function","name":"totalSupply","inputs":[],"outputs":[{"name":"","type":"uint256","internalType":"uint256"}],"stateMutability":"view"},{"type":"function","name":"transfer","inputs":[{"name":"to","type":"address","internalType":"address"},{"name":"value","type":"uint256","internalType":"uint256"}],"outputs":[{"name":"","type":"bool","internalType":"bool"}],"stateMutability":"nonpayable"},{"type":"function","name":"transferFrom","inputs":[{"name":"from","type":"address","internalType":"address"},{"name":"to","type":"address","internalType":"address"},{"name":"value","type":"uint256","internalType":"uint256"}],"outputs":[{"name":"","type":"bool","internalType":"bool"}],"stateMutability":"nonpayable"},{"type":"event","name":"Approval","inputs":[{"name":"owner","type":"address","indexed":true,"internalType":"address"},{"name":"spender","type":"address","indexed":true,"internalType":"address"},{"name":"value","type":"uint256","indexed":false,"internalType":"uint256"}],"anonymous":false},{"type":"event","name":"Transfer","inputs":[{"name":"from","type":"address","indexed":true,"internalType":"address"},{"name":"to","type":"address","indexed":true,"internalType":"address"},{"name":"value","type":"uint256","indexed":false,"internalType":"uint256"}],"anonymous":false},{"type":"error","name":"ERC20InsufficientAllowance","inputs":[{"name":"spender","type":"address","internalType":"address"},{"name":"allowance","type":"uint256","internalType":"uint256"},{"name":"needed","type":"uint256","internalType":"uint256"}]},{"type":"error","name":"ERC20InsufficientBalance","inputs":[{"name":"sender","type":"address","internalType":"address"},{"name":"balance","type":"uint256","internalType":"uint256"},{"name":"needed","type":"uint256","internalType":"uint256"}]},{"type":"error","name":"ERC20InvalidApprover","inputs":[{"name":"approver","type":"address","internalType":"address"}]},{"type":"error","name":"ERC20InvalidReceiver","inputs":[{"name":"receiver","type":"address","internalType":"address"}]},{"type":"error","name":"ERC20InvalidSender","inputs":[{"name":"sender","type":"address","internalType":"address"}]},{"type":"error","name":"ERC20InvalidSpender","inputs":[{"name":"spender","type":"address","internalType":"address"}]}],"bytecode":{"object":"0x608060405234801561001057600080fd5b506040518060400160405280600981526020016823b7b6322a37b5b2b760b91b8152506040518060400160405280600381526020016211d31160ea1b815250816003908161005e9190610124565b50600461006b8282610124565b5050600580546001600160a01b03191633179055506101e2565b634e487b7160e01b600052604160045260246000fd5b600181811c908216806100af57607f821691505b6020821081036100cf57634e487b7160e01b600052602260045260246000fd5b50919050565b601f82111561011f57806000526020600020601f840160051c810160208510156100fc5750805b601f840160051c820191505b8181101561011c5760008155600101610108565b50505b505050565b81516001600160401b0381111561013d5761013d610085565b6101518161014b845461009b565b846100d5565b6020601f821160018114610185576000831561016d5750848201515b600019600385901b1c1916600184901b17845561011c565b600084815260208120601f198516915b828110156101b55787850151825560209485019460019092019101610195565b50848210156101d35786840151600019600387901b60f8161c191681555b50505050600190811b01905550565b610830806101f16000396000f3fe608060405234801561001057600080fd5b50600436106100b45760003560e01c80634e6ec247116100715780634e6ec2471461014357806370a08231146101565780638da5cb5b1461017f57806395d89b41146101aa578063a9059cbb146101b2578063dd62ed3e146101c557600080fd5b806306fdde03146100b9578063095ea7b3146100d757806318160ddd146100fa57806323b872dd1461010c578063313ce5671461011f57806340c10f191461012e575b600080fd5b6100c16101fe565b6040516100ce9190610679565b60405180910390f35b6100ea6100e53660046106e3565b610290565b60405190151581526020016100ce565b6002545b6040519081526020016100ce565b6100ea61011a36600461070d565b6102aa565b604051601281526020016100ce565b61014161013c3660046106e3565b6102ce565b005b6101416101513660046106e3565b61033b565b6100fe61016436600461074a565b6001600160a01b031660009081526020819052604090205490565b600554610192906001600160a01b031681565b6040516001600160a01b0390911681526020016100ce565b6100c1610371565b6100ea6101c03660046106e3565b610380565b6100fe6101d336600461076c565b6001600160a01b03918216600090815260016020908152604080832093909416825291909152205490565b60606003805461020d9061079f565b80601f01602080910402602001604051908101604052809291908181526020018280546102399061079f565b80156102865780601f1061025b57610100808354040283529160200191610286565b820191906000526020600020905b81548152906001019060200180831161026957829003601f168201915b5050505050905090565b60003361029e81858561038e565b60019150505b92915050565b6000336102b88582856103a0565b6102c385858561041f565b506001949350505050565b6005546001600160a01b0316331461032d5760405162461bcd60e51b815260206004820152601860248201527f6f6e6c79206f776e65722063616e2063616c6c2074686973000000000000000060448201526064015b60405180910390fd5b610337828261033b565b5050565b6001600160a01b0382166103655760405163ec442f0560e01b815260006004820152602401610324565b6103376000838361047a565b60606004805461020d9061079f565b60003361029e81858561041f565b61039b83838360016105a4565b505050565b6001600160a01b03838116600090815260016020908152604080832093861683529290522054600019811015610419578181101561040a57604051637dc7a0d960e11b81526001600160a01b03841660048201526024810182905260448101839052606401610324565b610419848484840360006105a4565b50505050565b6001600160a01b03831661044957604051634b637e8f60e11b815260006004820152602401610324565b6001600160a01b0382166104735760405163ec442f0560e01b815260006004820152602401610324565b61039b8383835b6001600160a01b0383166104a557806002600082825461049a91906107d9565b909155506105179050565b6001600160a01b038316600090815260208190526040902054818110156104f85760405163391434e360e21b81526001600160a01b03851660048201526024810182905260448101839052606401610324565b6001600160a01b03841660009081526020819052604090209082900390555b6001600160a01b03821661053357600280548290039055610552565b6001600160a01b03821660009081526020819052604090208054820190555b816001600160a01b0316836001600160a01b03167fddf252ad1be2c89b69c2b068fc378daa952ba7f163c4a11628f55a4df523b3ef8360405161059791815260200190565b60405180910390a3505050565b6001600160a01b0384166105ce5760405163e602df0560e01b815260006004820152602401610324565b6001600160a01b0383166105f857604051634a1406b160e11b815260006004820152602401610324565b6001600160a01b038085166000908152600160209081526040808320938716835292905220829055801561041957826001600160a01b0316846001600160a01b03167f8c5be1e5ebec7d5bd14f71427d1e84f3dd0314c0f7b2291e5b200ac8c7c3b9258460405161066b91815260200190565b60405180910390a350505050565b602081526000825180602084015260005b818110156106a7576020818601810151604086840101520161068a565b506000604082850101526040601f19601f83011684010191505092915050565b80356001600160a01b03811681146106de57600080fd5b919050565b600080604083850312156106f657600080fd5b6106ff836106c7565b946020939093013593505050565b60008060006060848603121561072257600080fd5b61072b846106c7565b9250610739602085016106c7565b929592945050506040919091013590565b60006020828403121561075c57600080fd5b610765826106c7565b9392505050565b6000806040838503121561077f57600080fd5b610788836106c7565b9150610796602084016106c7565b90509250929050565b600181811c908216806107b357607f821691505b6020821081036107d357634e487b7160e01b600052602260045260246000fd5b50919050565b808201808211156102a457634e487b7160e01b600052601160045260246000fdfea264697066735822122002b6f06fa97e5923a7d8eda0e56013d59a43464d07d3f760c3fb2b31c648f8c364736f6c634300081b0033","linkReferences":{}},"methodIdentifiers":{"_mint(address,uint256)":"4e6ec247","allowance(address,address)":"dd62ed3e","approve(address,uint256)":"095ea7b3","balanceOf(address)":"70a08231","decimals()":"313ce567","mint(address,uint256)":"40c10f19","name()":"06fdde03","owner()":"8da5cb5b","symbol()":"95d89b41","totalSupply()":"18160ddd","transfer(address,uint256)":"a9059cbb","transferFrom(address,address,uint256)":"23b872dd"},"id":22}